{
    "contractName": "KipuBank",
    "abi": [
        {
            "inputs": [
                {
                    "internalType": "uint256",
                    "name": "_bankCap",
                    "type": "uint256"
                }
            ],
            "stateMutability": "nonpayable",
            "type": "constructor"
        },
        {
            "inputs": [],
            "name": "BankCapIsFull",
            "type": "error"
        },
        {
            "inputs": [],
            "name": "InsufficientFunds",
            "type": "error"
        },
        {
            "inputs": [],
            "name": "InvalidBankCap",
            "type": "error"
        },
        {
            "inputs": [],
            "name": "NullAmount",
            "type": "error"
        },
        {
            "inputs": [],
            "name": "TransferFailed",
            "type": "error"
        },
        {
            "inputs": [],
            "name": "WithdrawLimitReached",
            "type": "error"
        },
        {
            "anonymous": false,
            "inputs": [
                {
                    "indexed": true,
                    "internalType": "address",
                    "name": "account",
                    "type": "address"
                },
                {
                    "indexed": false,
                    "internalType": "uint256",
                    "name": "amount",
                    "type": "uint256"
                }
            ],
            "name": "Deposit",
            "type": "event"
        },
        {
            "anonymous": false,
            "inputs": [
                {
                    "indexed": true,
                    "internalType": "address",
                    "name": "account",
                    "type": "address"
                },
                {
                    "indexed": false,
                    "internalType": "uint256",
                    "name": "amount",
                    "type": "uint256"
                }
            ],
            "name": "Withdraw",
            "type": "event"
        },
        {
            "inputs": [],
            "name": "WITHDRAW_LIMIT",
            "outputs": [
                {
                    "internalType": "uint256",
                    "name": "",
                    "type": "uint256"
                }
            ],
            "stateMutability": "view",
            "type": "function"
        },
        {
            "inputs": [
                {
                    "internalType": "address",
                    "name": "",
                    "type": "address"
                }
            ],
            "name": "bankAccounts",
            "outputs": [
                {
                    "internalType": "uint256",
                    "name": "",
                    "type": "uint256"
                }
            ],
            "stateMutability": "view",
            "type": "function"
        },
        {
            "inputs": [],
            "name": "deposit",
            "outputs": [],
            "stateMutability": "payable",
            "type": "function"
        },
        {
            "inputs": [],
            "name": "getAccountBalance",
            "outputs": [
                {
                    "internalType": "uint256",
                    "name": "",
                    "type": "uint256"
                }
            ],
            "stateMutability": "view",
            "type": "function"
        },
        {
            "inputs": [],
            "name": "getContractBalance",
            "outputs": [
                {
                    "internalType": "uint256",
                    "name": "",
                    "type": "uint256"
                }
            ],
            "stateMutability": "view",
            "type": "function"
        },
        {
            "inputs": [],
            "name": "i_bankCap",
            "outputs": [
                {
                    "internalType": "uint256",
                    "name": "",
                    "type": "uint256"
                }
            ],
            "stateMutability": "view",
            "type": "function"
        },
        {
            "inputs": [
                {
                    "internalType": "uint256",
                    "name": "_amount",
                    "type": "uint256"
                }
            ],
            "name": "withdraw",
            "outputs": [],
            "stateMutability": "nonpayable",
            "type": "function"
        }
    ],
    "bytecode": "60a034607057601f6103e638819003918201601f19168301916001600160401b0383118484101760745780849260209460405283398101031260705751801560615760805260405161035d90816100898239608051818181607d015260c10152f35b632f9874a760e01b5f5260045ffd5b5f80fd5b634e487b7160e01b5f52604160045260245ffdfe60806040526004361015610011575f80fd5b5f3560e01c80632e1a7d4d146101e757806334f4c37e146101ac5780636896fabf146101865780636f9fb98a1461016b57806394c2c61214610149578063d0e30db0146100a45763f6687af714610066575f80fd5b346100a0575f3660031901126100a05760206040517f00000000000000000000000000000000000000000000000000000000000000008152f35b5f80fd5b5f3660031901126100a057341561013a576100bf473461031a565b7f00000000000000000000000000000000000000000000000000000000000000001061012b57335f525f60205260405f206100fb34825461031a565b90556040513481527fe1fffcc4923d04b559f4d29a8bfc6cda04eb5b0d3c460751c2402c5c5cc9109c60203392a2005b6339d7b52760e21b5f5260045ffd5b630e5a744960e41b5f5260045ffd5b346100a0575f3660031901126100a0576020604051678ac7230489e800008152f35b346100a0575f3660031901126100a057602047604051908152f35b346100a0575f3660031901126100a057335f525f602052602060405f2054604051908152f35b346100a05760203660031901126100a0576004356001600160a01b038116908190036100a0575f525f602052602060405f2054604051908152f35b346100a05760203660031901126100a057600435335f525f60205260405f2054811161030b57678ac7230489e8000081116102fc57801561013a57335f525f60205260405f208054908282039182116102e857555f80808084335af13d156102e3573d67ffffffffffffffff81116102cf5760405190601f8101601f19908116603f0116820167ffffffffffffffff8111838210176102cf5760405281525f60203d92013e5b156102c0576040519081527f884edad9ce6fa2440d8a54cc123490eb96d2768479d49ff9c7366125a942436460203392a2005b6312171d8360e31b5f5260045ffd5b634e487b7160e01b5f52604160045260245ffd5b61028d565b634e487b7160e01b5f52601160045260245ffd5b637e4391cd60e11b5f5260045ffd5b63356680b760e01b5f5260045ffd5b919082018092116102e85756fea26469706673582212208858f84538f5b16369d9be14fdd6ec6c7168e2e60278147d823f2ccfda2fcbd764736f6c634300081d0033",
    "sourcePath": "/home/pedro/solidity/ethKipu/ethos/aulaA2/src/KipuBank.sol",
    "compiler": {
        "name": "solc",
        "version": "0.8.29+commit.ab55807c"
    },
    "functionHashes": {
        "WITHDRAW_LIMIT()": "94c2c612",
        "bankAccounts(address)": "34f4c37e",
        "deposit()": "d0e30db0",
        "getAccountBalance()": "6896fabf",
        "getContractBalance()": "6f9fb98a",
        "i_bankCap()": "f6687af7",
        "withdraw(uint256)": "2e1a7d4d"
    },
    "gasEstimates": {
        "creation": {
            "codeDepositCost": "172200",
            "executionCost": "infinite",
            "totalCost": "infinite"
        },
        "external": {
            "WITHDRAW_LIMIT()": "233",
            "bankAccounts(address)": "2380",
            "deposit()": "infinite",
            "getAccountBalance()": "2351",
            "getContractBalance()": "216",
            "i_bankCap()": "infinite",
            "withdraw(uint256)": "infinite"
        },
        "internal": {
            "transferETH(address,uint256)": "infinite"
        }
    }
}